:100000000C946E010C949F010C949F010C949F0121
:100010000C949F010C949F010C949F010C949F01E0
:100020000C949F010C949F010C949F010C949F01D0
:100030000C949F010C949F010C949F010C949F01C0
:100040000C949F010C94CD080C949F010C949F017B
:100050000C949F010C949F010C949F010C94340B01
:100060000C949F010C940D080C94E3070C949F01D1
:100070000C949F010C949F010C949F010C949F0180
:100080000C949F080C949F010C949F010C949F0169
:100090000C949F010C949F010C949F010C949F0160
:1000A0000C949F010C949F010C9471080C949F0177
:1000B0000C949F010C949F010C949F010C94430895
:1000C0000C949F010C949F010C949F010C949F0130
:1000D0000C949F010C949F010C949F010C949F0120
:1000E0000C949F01F909FC09EB09EF09F309330AA4
:1000F000000A040A0A0A0E0A120A180A1C0A200A2E
:10010000330A260A2A0A2E0A6F0A740A790A830A0F
:100110008D0A060B970A9F0AA70AB10ABB0AC50AED
:10012000D40ADE0A060BE80AF20AFC0A0C94B001B3
:100130000C941C0A0C94260A0C94C4010C94E80A32
:100140000C94DE0A0C94EB090C94060B0C94970AA1
:100150000C94EF090C9450020C94200A0C94330A6E
:100160000C94FC0A0C940E0A0C94FC090C948D0A55
:100170000C94A70A0C94D2010C94740A0C940902F2
:100180000C94790A0C94BB0A0C946F0A0C94000A24
:100190000C94F20A0C942E0A0C942A0A0C94C50AA8
:1001A0000C94830A0C94D40A0C94AB020C94180A95
:1001B0000C94F9090C94B10A0C94940E0C94F30964
:1001C0000C949F0A0C940A0A0C94040A0C94A10142
:1001D0000C94120A00000A0B02090C0D0E0807030A
:1001E000040100000000000000000000000000000A
:1001F00000000000000000000000000000000000FF
:1002000012111000000000000000000000000000BB
:100210000000000000000000000000002200250097
:1002200028002B002E0031003400020100000501DF
:1002300008010B0100002100240027002A002D00E6
:100240003000330001010000040107010A01050527
:100250000505070508080808020202020A0A08083C
:10026000040404040101010101010101030303036A
:1002700003030303040707070C0C0C0C0C0C0C0CF9
:100280000202020206060606060606060B0B0B0B0A
:100290000B0B0B0B0102102020080810204010202F
:1002A000408002010201080402010102040810203A
:1002B0004080804020100804020180040201804038
:1002C00020100804020108040201010204081020A1
:1002D00040800102040810204080940E11241FBEAB
:1002E000CFEFD1E2DEBFCDBF00E00CBF13E0A0E056
:1002F000B2E0EAECF2E200E00BBF02C007900D9220
:10030000A837B107D9F724E0A8E7B3E001C01D92F0
:10031000AA3CB207E1F711E0CEE6D1E000E006C06A
:1003200021970109802FFE010E94300FCD36D107A1
:1003300080E00807A9F70E947E0B0C9463110C94CF
:100340000000FC01538D448D252F30E0842F90E078
:10035000821B930B541710F0CF96089501970895C0
:10036000FC01918D828D981761F0828DDF01A80FBD
:10037000B11D5D968C91928D9F5F9F73928F90E0DF
:1003800008958FEF9FEF0895FC01918D828D98174E
:1003900031F0828DE80FF11D858D90E008958FEF8B
:1003A0009FEF0895FC01918D228D892F90E0805C54
:1003B0009F4F821B91098F739927089580E294E0E3
:1003C0000E94D20121E0892B09F420E0822F0895B8
:1003D000FC01848DDF01A80FB11DA35ABF4F2C91E2
:1003E000848D90E001968F739927848FA689B789B1
:1003F0002C93A089B1898C9180648C93938D848D8A
:10040000981306C00288F389E02D80818F7D808358
:100410000895EF92FF920F931F93CF93DF93EC0118
:1004200081E0888F9B8D8C8D981305C0E889F989B0
:10043000808185FD24C0F62E0B8D10E00F5F1F4FCD
:100440000F731127E02E8C8DE8120CC00FB607FC3D
:10045000FACFE889F989808185FFF5CFCE010E9426
:10046000E801F1CF8B8DFE01E80FF11DE35AFF4F3C
:10047000F0820B8FEA89FB898081806207C0EE8958
:10048000FF896083E889F98980818064808381E0C5
:1004900090E0DF91CF911F910F91FF90EF90089521
:1004A000CF93DF93EC01888D8823C9F0EA89FB891B
:1004B000808185FD05C0A889B9898C9186FD0FC012
:1004C0000FB607FCF5CF808185FFF2CFA889B989E7
:1004D0008C9185FFEDCFCE010E94E801E7CFDF913F
:1004E000CF91089580E090E0892B21F00E94DE01F9
:1004F000811125C080E090E0892B41F080E090E000
:10050000892B21F00E94000081111CC080E090E046
:10051000892B41F080E090E0892B21F00E940000BF
:10052000811113C080E090E0892BA1F080E090E081
:10053000892B81F00E94000081110AC008950E9459
:100540000000D8CF0E940000E1CF0E940000EACF57
:100550000C9400000895CF92DF92EF92FF920F93D8
:100560001F93CF93DF936C017A018B01C0E0D0E041
:10057000CE15DF0589F0D8016D918D01D601ED9181
:10058000FC910190F081E02DC6011995892B11F4A1
:100590007E0102C02196ECCFC701DF91CF911F9160
:1005A0000F91FF90EF90DF90CF900895089580E035
:1005B00090E00895CF92DF92EF92FF92CF93DF9376
:1005C000EC01603282E078070CF03DC077FD06C098
:1005D000653B71052CF064EB70E002C060E070E0F8
:1005E000898128E830E06901C81AD10887FDD394D1
:1005F000CC0CDD1CCC0CDD1C0D2C000CEE08FF0817
:100600008A8128E532E0281B310987FD3395220FC6
:10061000331F220F331FC901330FAA0BBB0B9C01E1
:10062000AD012C193D094E095F09DB010E94EB0E5B
:1006300024EB30E040E050E00E94C10EC20ED31E19
:10064000E41EF51EB6018881803380F5998148E863
:1006500050E0491B510997FD5395440F551F440F16
:10066000551F6417750784F09A8128E532E0291B2D
:10067000310997FD3395220F331F220F331FAB0132
:10068000261737070CF4A90142505109440F551F92
:100690002FB7F89490E0FC01EE0FFF1F8E0F9F1F05
:1006A000FC01E358FC4F528341832FBFDF91CF9170
:1006B000FF90EF90DF90CF900895CF93DF93FC01F0
:1006C00026810796EF012A96222379F0168269E1A6
:1006D00070E00E94DA0288E192E00E942409CE01D3
:1006E0000E941B0980E292E00FC021E0268360EAAD
:1006F00070E00E94DA0288E192E00E942409CE01B3
:100700000E941B098AE292E0DF91CF910C940D09BF
:100710000E944E11FC01808191810C94CD0FEF92CB
:10072000FF920F931F93CF93DF93EC017B018A011C
:1007300088819981009729F02A813B812417350708
:10074000F8F4B8016F5F7F4F0E946510009759F071
:10075000998388831B830A832C813D81232B81F419
:10076000FC0110820DC088819981009711F00E94D0
:10077000CD0F198218821D821C821B821A8207C02B
:100780001D830C83B701888199810E945C11CE0181
:10079000DF91CF911F910F91FF90EF900895CF932C
:1007A000DF93EC01FB0186179707B1F0608171813F
:1007B0006115710529F0448155810E948F030CC099
:1007C00088819981009711F00E94CD0F19821882BB
:1007D0001D821C821B821A82CE01DF91CF91089567
:1007E000FC0111821082138212821582148261151B
:1007F000710551F0FB0101900020E9F73197AF013D
:10080000461B570B0C948F030895CF92DF92EF9203
:10081000FF920F931F93CF93DF936C018B017A01AB
:10082000EC01C758DC4F888187FF04C0FB011182AF
:10083000108224C08CE08C9D90018D9D300D112480
:100840008881A901480F511D87FD5A958091780331
:1008500090E04817590794F48881A901480F511D69
:1008600087FD5A95CA01FA01EE0FFF1F8E0F9F1FD9
:10087000FC01E358FC4F808186FD19C088818F5FA1
:1008800088838CE08C9D90018D9D300D1124888192
:10089000A901480F511D87FD5A958091780390E07A
:1008A00048175907BCF488818C3044F113C0888103
:1008B000280F311D87FD3A95F901EE0FFF1F2E0F0E
:1008C0003F1FF901E358FC4F808160E08F730E9465
:1008D000CA09D4CFF80180819181049680349C4963
:1008E00018F480E49CE904C0F801808191810496A9
:1008F000F701918380838FEF888345C0F8014081A1
:1009000051818881B901680F711D87FD7A95CB01EE
:10091000FB01EE0FFF1F8E0F9F1FFC01E358FC4FE2
:1009200081819281840F951FF70191838083888153
:10093000A901480F511D87FD5A95CA01FA01EE0F12
:10094000FF1F8E0F9F1FFC01E358FC4F808186FF25
:100950001AC08881280F311D87FD3A95F901EE0FE5
:10096000FF1F2E0F3F1FF901E358FC4F808161E00C
:100970008F73DF91CF911F910F91FF90EF90DF90D8
:10098000CF900C94CA09DF91CF911F910F91FF90E6
:10099000EF90DF90CF9008950F931F93CF93DF9345
:1009A000EC018B01888591E0982798877F836E837F
:1009B00084E392E00E942409CE0109960E941B095B
:1009C0008CE392E00E940D09C801DF91CF911F9145
:1009D0000F910C94C009CF93DF93EC0160E070E0BD
:1009E00088810E94470A60E08C810E94CA0960E009
:1009F0008A810E94CA0989E492E00E942409CE01FA
:100A00000A960E941B0980E592E0DF91CF910C9439
:100A10000D090F931F93CF93DF93EC018B01888116
:100A20000E94470A60E08A810E94CA0961E08C81C5
:100A30000E94CA0989E492E00E942409CE010A9624
:100A40000E941B098BE592E00E942409888199810C
:100A50000E94C00981E692E00E9424098A819B815C
:100A60000E94C00987E692E00E9424098C819D8142
:100A70000E94C0098DE692E00E942409C8010E94EC
:100A8000C00985E792E0DF91CF911F910F910C94FF
:100A90000D090F931F93CF93DF93EC018B01888196
:100AA0000E94470A60E08C810E94CA0961E08A8145
:100AB0000E94CA0989E492E00E942409CE010A96A4
:100AC0000E941B098BE592E00E942409888199818C
:100AD0000E94C00981E692E00E9424098A819B81DC
:100AE0000E94C00987E692E00E9424098C819D81C2
:100AF0000E94C0098DE692E00E942409C8010E946C
:100B0000C0098DE792E0DF91CF911F910F910C9476
:100B10000D094F925F926F927F928F929F92AF9248
:100B2000BF92CF92DF92EF92FF920F931F93CF93DA
:100B3000DF93EC01962E872EA42E552EB22E432E37
:100B40003C018AE0680E711C6DEA72E0C3010E94EC
:100B5000F003B601C3010E94CF03AA825B82BC826C
:100B60004D82988289821F830E83F986E886892DBB
:100B70000E9426098A2D0E9426098B2D0E94260993
:100B800089E492E00E942409C6010E941B098BE5BA
:100B900092E00E942409892D982D0E94C00981E6C7
:100BA00092E00E9424098A2D952D0E94C00987E6B3
:100BB00092E00E9424098B2D942D0E94C0098DE69D
:100BC00092E00E942409C8010E94C00983E892E0D3
:100BD000DF91CF911F910F91FF90EF90DF90CF9019
:100BE000BF90AF909F908F907F906F905F904F904D
:100BF0000C940D09AF92BF92DF92EF92FF920F9388
:100C00001F93CF93DF931F92CDB7DEB75C01D62E33
:100C100079018C010E5F1F4F6DEA72E0C8014983B4
:100C20000E94F003F501D08249814183B701C801D8
:100C30000E94CF03F50180810E942609F501818180
:100C40000E9426098EE892E00E942409C8010E94B1
:100C50001B0980E493E00F90DF91CF911F910F91DA
:100C6000FF90EF90DF90BF90AF900C940D098F92A2
:100C70009F92AF92BF92CF92DF92EF92FF920F932B
:100C80001F93CF93DF93EC016B015A0179011E8210
:100C900080917803803398F491E0980F90937803D3
:100CA0008F8390E0FC01EE0FFF1F8E0F9F1FFC0152
:100CB000E358FC4F88EB9BE09283818302C08FEF67
:100CC0008F834E018AE0880E911C6DEA72E0C401A8
:100CD0000E94F003D982C882BB82AA82FD82EC8284
:100CE000B801C4010E94CF03EC80FD80CA80DB8084
:100CF000B8808E01095F1F4F8F81803308F068C074
:100D00008B2D0E9426098F81E82FF0E09F01220F92
:100D1000331FE20FF31FE358FC4F9B2D9F7320817D
:100D2000207CB22EB92AB08220E232E02C193D0993
:100D300037FF02C02D5F3F4F359527953595279595
:100D4000288720E639E02E193F0937FF02C02D5FC2
:100D50003F4F359527953595279529876CE00E945B
:100D6000240F9CE0899FB001112440E050E09A01DB
:100D7000260F371FF901EE0FFF1F2E0F3F1FF9013E
:100D8000E358FC4F908196FD17C04F5F5F4F4C308A
:100D9000510569F7813009F049C01092800082E066
:100DA000809381001092850010928400B19A809106
:100DB0006F00826080936F00EF81F0E0CF01880FB9
:100DC000991FE80FF91FE358FC4F808180648083EE
:100DD00069E170E0C8010E94DA0288E192E00E94B5
:100DE0002409C4010E941B0986E992E00E9424099B
:100DF00068817981072E000C880B990B97FF03C03F
:100E00000E94990903C04AE00E9445098BEA92E0DA
:100E1000DF91CF911F910F91FF90EF90DF90CF90D6
:100E2000BF90AF909F908F900C94FB08823061F43C
:100E3000109290008093910010929500109294006F
:100E400088BB80937100B8CF833069F41092A00002
:100E500082E08093A1001092A5001092A40089BBAB
:100E600080937200A9CF8111A7CF1092200182E058
:100E70008093210110922501109224018ABB809356
:100E800073009ACFCF93DF93EC0160E070E089812B
:100E90000E94470A8EE892E00E942409CE01029641
:100EA0000E941B0980E592E00E9424098EEA92E0EC
:100EB0000E942409698170E080E090E04AE00E948D
:100EC000450982EC92E00E9424098881DF91CF914C
:100ED0000C948609CF93DF93EC01888199810E945D
:100EE00042078A819B810E9442078C819D810E94DA
:100EF000420784E392E00E942409CE0109960E94F1
:100F00001B0980E592E0DF91CF910C940D090F93BE
:100F10001F93CF93DF93EC018B0160E088810E94E7
:100F2000CA09B80189810E94470A8EE892E00E94AE
:100F30002409CE0102960E941B098AEC92E00E94CD
:100F400024098EEA92E00E942409698170E080E021
:100F500090E04AE00E94450982EC92E00E94240958
:100F60008881DF91CF911F910F910C9486090F9387
:100F70001F93CF93DF93EC018B0161E088810E9486
:100F8000CA09B80189810E94470A8EE892E00E944E
:100F90002409CE0102960E941B098EEA92E00E946B
:100FA0002409698170E080E090E04AE00E944509F0
:100FB00082EC92E00E9424098881DF91CF911F91F9
:100FC0000F910C9486091F920F920FB60F92112465
:100FD0000BB60F922F933F934F935F936F937F9333
:100FE0008F939F93AF93BF93EF93FF9380E294E02F
:100FF0000E94E801FF91EF91BF91AF919F918F9176
:101000007F916F915F914F913F912F910F900BBE08
:101010000F900FBE0F901F9018951F920F920FB652
:101020000F9211240BB60F922F938F939F93EF93F0
:10103000FF93E0913004F09131048081E091360417
:10104000F091370482FD12C09081809139048F5F46
:101050008F7320913A04821751F0E0913904F0E047
:10106000E05EFB4F958F8093390401C08081FF9132
:10107000EF919F918F912F910F900BBE0F900FBE0C
:101080000F901F9018951F920F920FB60F92112478
:101090000BB60F922F933F934F935F936F937F9372
:1010A0008F939F93AF93BF93EF93FF9348E251E0E9
:1010B00064E271E080E090E00E940504FF91EF910E
:1010C000BF91AF919F918F917F916F915F914F9160
:1010D0003F912F910F900BBE0F900FBE0F901F905E
:1010E00018951F920F920FB60F9211240BB60F9204
:1010F0002F933F934F935F936F937F938F939F9320
:10110000AF93BF93EF93FF9348EA50E064EA70E037
:1011100083E090E00E940504FF91EF91BF91AF91B1
:101120009F918F917F916F915F914F913F912F91FF
:101130000F900BBE0F900FBE0F901F9018951F922F
:101140000F920FB60F9211240BB60F922F933F936D
:101150004F935F936F937F938F939F93AF93BF93BF
:10116000EF93FF9348E950E064E970E082E090E09B
:101170000E940504FF91EF91BF91AF919F918F91D4
:101180007F916F915F914F913F912F910F900BBE87
:101190000F900FBE0F901F9018951F920F920FB6D1
:1011A0000F9211240BB60F922F933F934F935F939F
:1011B0006F937F938F939F93AF93BF93EF93FF931F
:1011C00048E850E064E870E081E090E00E940504A7
:1011D000FF91EF91BF91AF919F918F917F916F910F
:1011E0005F914F913F912F910F900BBE0F900FBECB
:1011F0000F901F901895009769F0FC010190002056
:10120000E9F73197AF01481B590BBC0180E294E02C
:101210000C94AB0280E090E00895CF93DF930E949E
:10122000FB08EC018BEA92E00E94FB088C0F9D1FEB
:10123000DF91CF910895FC014481558160817181D6
:1012400080E294E00C94AB020C94FB0890E0FC016B
:10125000EC56FD4F2491FC01E25BFD4F8491882305
:1012600099F090E0880F991FFC01EC5CFD4FA5916F
:10127000B491FC01E65EFD4F859194918FB7F8948F
:10128000EC91E22BEC938FBF08958F929F92AF92D7
:10129000BF920F931F93CF93DF93CDB7DEB7A19784
:1012A0000FB6F894DEBF0FBECDBF19A2423008F4CE
:1012B0004AE08E010F5D1F4F842E912CA12CB12C82
:1012C000A50194010E94F30EE62FB901CA01015055
:1012D0001109EA3014F4E05D01C0E95CD801EC9337
:1012E000232B242B252B61F7C8010E94FB08A19614
:1012F0000FB6F894DEBF0FBECDBFDF91CF911F9127
:101300000F91BF90AF909F908F900895CF93DF93F0
:10131000682F70E080E090E04AE00E944509EC010F
:101320008BEA92E00E94FB088C0F9D1FDF91CF910A
:101330000895CF92DF92EF92FF92CF93DF936B01EC
:101340007C01E0912004F09121040190F081E02DD6
:101350006DE280E294E01995EC0166277727CB01D6
:101360006C197D098E099F094AE00E9445098C0F7E
:101370009D1FDF91CF91FF90EF90DF90CF90089568
:10138000BC01990F880B990B97FD0C9499094AE0C1
:101390000C944509362F90E0FC01EC52FE4F44912D
:1013A000FC01EC56FD4F2491FC01E25BFD4F949152
:1013B000992309F46BC0442309F455C050E0FA01A5
:1013C0003197E231F10508F04EC08827EE58FF4F03
:1013D0008F4F0C94300F809180008F7707C08091E1
:1013E00080008F7D03C080918000877F8093800084
:1013F0003AC084B58F7702C084B58F7D84BD33C079
:101400008091B0008F7703C08091B0008F7D809372
:10141000B00029C0809190008F7707C08091900024
:101420008F7D03C080919000877F809390001BC0C8
:101430008091A0008F7707C08091A0008F7D03C0AE
:101440008091A000877F8093A0000DC08091200133
:101450008F7707C0809120018F7D03C0809120018C
:10146000877F80932001E92FF0E0EE0FFF1FE65EFB
:10147000FD4FA591B4918FB7F894EC91311103C051
:1014800020952E2301C02E2B2C938FBF08951F93E0
:10149000CF93DF93182FEB010E942609209711F4B8
:1014A00060E004C0CF3FD10539F461E0812FDF91C6
:1014B000CF911F910C94CA09E12FF0E0EC52FE4F3E
:1014C000E4914E2F50E0FA013197E231F10508F036
:1014D0009DC08827EC57FF4F8F4F0C94300F84B579
:1014E000806884BDC7BD97C084B5806284BDC8BD17
:1014F00092C080918000806880938000D0938900A2
:10150000C093880088C080918000806280938000B2
:10151000D0938B00C0938A007EC080918000886049
:1015200080938000D0938D00C0938C0074C0809114
:10153000B00080688093B000C093B3006CC080910D
:10154000B00080628093B000C093B40064C080910A
:101550009000806880939000D0939900C093980089
:101560005AC080919000806280939000D0939B003D
:10157000C0939A0050C08091900088608093900042
:10158000D0939D00C0939C0046C08091A0008068CD
:101590008093A0008091A0008F7B8093A000D093C7
:1015A000A900C093A80037C08091A00080628093FA
:1015B000A000D093AB00C093AA002DC08091A000E2
:1015C00088608093A000D093AD00C093AC0023C08E
:1015D00080912001806880932001D0932901C093DD
:1015E000280119C080912001806280932001D0934E
:1015F0002B01C0932A010FC0809120018860809345
:101600002001D0932D01C0932C0105C0C038D10515
:101610000CF04BCF45CFDF91CF911F9108953FB78D
:10162000F8948091C2049091C304A091C404B09135
:10163000C50426B5A89B05C02F3F19F00196A11D32
:10164000B11D3FBFBA2FA92F982F8827820F911D58
:10165000A11DB11DBC01CD0142E0660F771F881F9F
:10166000991F4A95D1F708951F920F920FB60F92C6
:1016700011242F933F938F939F93AF93BF938091A8
:10168000BE049091BF04A091C004B091C1043091F8
:10169000BD0423E0230F2D3720F40196A11DB11DB9
:1016A00005C026E8230F0296A11DB11D2093BD049D
:1016B0008093BE049093BF04A093C004B093C10470
:1016C0008091C2049091C304A091C404B091C50458
:1016D0000196A11DB11D8093C2049093C304A093F1
:1016E000C404B093C504BF91AF919F918F913F9176
:1016F0002F910F900FBE0F901F901895CF93DF93EF
:1017000000D000D0CDB7DEB7789484B5826084BDB8
:1017100084B5816084BD85B5826085BD85B58160F5
:1017200085BD80916E00816080936E001092810073
:10173000809181008260809381008091810081602E
:1017400080938100809180008160809380008091EF
:10175000B10084608093B1008091B000816080937B
:10176000B0008091910082608093910080919100FF
:1017700081608093910080919000816080939000BF
:101780008091A10082608093A1008091A10081607E
:101790008093A1008091A00081608093A00080913F
:1017A00021018260809321018091210181608093D9
:1017B00021018091200181608093200180917A0035
:1017C000846080937A0080917A00826080937A00AE
:1017D00080917A00816080937A0080917A0080689D
:1017E00080937A001092C100E0913004F0913104AE
:1017F00082E08083E0912C04F0912D041082E0912E
:101800002E04F0912F048FEC808310923804E09125
:101810003404F091350486E08083E0913204F09145
:101820003304808180618083E0913204F09133043D
:10183000808188608083E0913204F091330480815C
:1018400080688083E0913204F091330480818F7D41
:10185000808387ED92E00E940D0981EE92E00E9464
:101860000D096AEE72E0CE0101960E94F00380E15C
:1018700090E00E94380F5C01CE0101966C0184E675
:10188000E82EF12C04EF11E027E130E046E150E0D2
:1018900068E070E0C5010E948905B0921C04A09226
:1018A0001B04C6010E948A0362EF72E0C6010E9417
:1018B000F00380E190E00E94380F5C010AEF10E035
:1018C00029E130E048E150E069E070E00E948905DC
:1018D000B0921A04A0921904C6010E948A0369EF0B
:1018E00072E0C6010E94F00380E190E00E94380F90
:1018F0007C01860120ED37E048EE53E066E070E0C1
:101900000E943706F0921804E0921704C6010E9464
:101910008A0360E073E0C6010E94F00380E190E07A
:101920000E94380F7C01860120ED37E048EE53E03D
:1019300065E070E00E943706F0921604E09215040C
:10194000C6010E948A0367E073E0C6010E94F003AB
:1019500080E190E00E94380F7C0186012CED35E09B
:1019600044EF51E064E070E00E943706F092140406
:10197000E0921304C6010E948A036EE073E0C60180
:101980000E94F00388E090E00E94380F8C019601DD
:101990004BE250E06DE270E00E94FA0510931204F1
:1019A00000931104C6010E948A036BE173E0C60133
:1019B0000E94F00388E090E00E94380F8C019601AD
:1019C00042E050E06AE270E00E94FA0510931004D1
:1019D00000930F04C6010E948A0368E273E0C60107
:1019E0000E94F00388E090E00E94380F7C0196018D
:1019F0004FE250E06EE270E00E94FA05F0920E04B1
:101A0000E0920D04C6010E948A0365E373E0C601FB
:101A10000E94F0038FE090E00E94380F8C01A090AC
:101A20000F04B09010048090110490901204FC01F7
:101A300010866C01F9E0CF0ED11C6DEA72E0C60190
:101A40000E94F003BE016F5F7F4FC6010E94CF036B
:101A5000F80191828082B382A282F582E4820E94A0
:101A60000F0B4B015C0194E6C92ED12CE12CF12C1B
:101A70000E940F0BDC01CB0188199909AA09BB0947
:101A8000883E9340A105B10558F0F1E0CF1AD10886
:101A9000E108F10828EE820E23E0921EA11CB11C81
:101AA000C114D104E104F10419F7C8010E946A07C6
:101AB00084E392E00E942409CE0101960E941B0952
:101AC0008EE393E00E940D0910931E0400931D0401
:101AD000CE0101960E948A0380E294E00E94D20126
:101AE000892B09F41EC180E294E00E94B00180932A
:101AF0001F048AE493E00E942409E0912004F091FD
:101B000021040190F081E02D60911F0480E294E0B7
:101B100019958BEA92E00E94FB0890911F0497337D
:101B200009F4BEC0DCF5933309F490C054F5913349
:101B300009F44EC00CF070C0903309F0EEC0009173
:101B40001D0410911E04F8016681778180819181C6
:101B50000E94B707F80166817781828193810E9494
:101B60008707F801848195810E94420784E392E00F
:101B70000E942409C80109960E941B0982E593E08E
:101B800048C0E0911B04F0911C04953309F482C015
:101B90000CF084C066817781CF0189C0923609F448
:101BA0009AC06CF4993309F48FC00CF483C0913659
:101BB00009F0B3C0809117049091180495C0943631
:101BC00009F4A5C00CF48CC0953609F490C0A5C0EA
:101BD00000911D0410911E04F801668177818081B7
:101BE00091810E948707F8016681778182819381C4
:101BF0000E94B707F801848195810E94420784E31F
:101C000092E00E942409C80109960E941B098DE5F3
:101C100093E00E940D0981C000911D0410911E04E3
:101C2000F80166817781808191810E948707F801A0
:101C300066817781828193810E948707F80166819E
:101C40007781848195810E94870719C000911D04C6
:101C500010911E04F80166817781808191810E9434
:101C6000B707F80166817781828193810E94B70767
:101C7000F80166817781848195810E94B70784E3AA
:101C800092E00E942409C80109960E941B0985E67A
:101C900093E0BFCF60857185CF0113C0CF0118C01D
:101CA0008091190490911A04FC01668177810E9449
:101CB000490533C08091190490911A04FC01608594
:101CC00071850E94090529C08091190490911A0418
:101CD0000E94EB0422C0809115049091160404C068
:101CE00080911304909114040E945D0316C08091AA
:101CF0001D0490911E04FC012085222319F06FEF32
:101D000070E002C068EC70E00E94CC0406C08091D4
:101D10001D0490911E040E946A0783E793E00E94CD
:101D20000D090E947202D8CEE0E2F4E01382128222
:101D300088EE93E0A0E0B0E084839583A683B78328
:101D40008AE092E09183808385EC90E09587848798
:101D500084EC90E09787868780EC90E0918B808B75
:101D600081EC90E0938B828B82EC90E0958B848B5E
:101D700086EC90E0978B868B118E128E138E148ECC
:101D80000895052E97FB1EF400940E94D80E57FD6F
:101D900007D00E94F30E07FC03D04EF40C94D80E2B
:101DA00050954095309521953F4F4F4F5F4F089587
:101DB00090958095709561957F4F8F4F9F4F0895B7
:101DC0000E94150FA59F900DB49F900DA49F800DAC
:101DD000911D11240895B7FF0C94E00E0E94E00EAF
:101DE000821B930B0895A1E21A2EAA1BBB1BFD01B7
:101DF0000DC0AA1FBB1FEE1FFF1FA217B307E407EA
:101E0000F50720F0A21BB30BE40BF50B661F771F41
:101E1000881F991F1A9469F7609570958095909521
:101E20009B01AC01BD01CF010895A29FB001B39FFA
:101E3000C001A39F700D811D1124911DB29F700DD3
:101E4000811D1124911D0895991B79E004C0991FEB
:101E5000961708F0961B881F7A95C9F78095089504
:101E6000EE0FFF1F881F8BBF0790F691E02D19948E
:101E7000CF93DF938230910510F482E090E0E091FF
:101E8000C804F091C90420E030E0C0E0D0E0309711
:101E900011F14081518148175907C0F0481759077F
:101EA00061F482819381209719F09B838A832BC0F0
:101EB0009093C9048093C80426C02115310519F0F8
:101EC0004217530718F49A01BE01DF01EF010280A7
:101ED000F381E02DDCCF2115310509F1281B390BE9
:101EE0002430310590F412968D919C9113976115D1
:101EF000710521F0FB019383828304C09093C90490
:101F00008093C804FD01329644C0FD01E20FF31F27
:101F100081939193225031092D933C933AC02091A3
:101F2000C6043091C704232B41F420910202309162
:101F300003023093C7042093C6042091000230911D
:101F400001022115310541F42DB73EB7409104023D
:101F500050910502241B350BE091C604F091C70493
:101F6000E217F307A0F42E1B3F0B2817390778F070
:101F7000AC014E5F5F4F2417350748F04E0F5F1FCF
:101F80005093C7044093C6048193919302C0E0E04C
:101F9000F0E0CF01DF91CF9108950F931F93CF937E
:101FA000DF93009709F48CC0FC01329713821282F0
:101FB0000091C8041091C9040115110581F4208114
:101FC0003181820F931F2091C6043091C7042817D6
:101FD000390779F5F093C704E093C60471C0D801BE
:101FE00040E050E0AE17BF0750F412962D913C919F
:101FF0001397AD012115310509F1D901F3CF9D01E9
:10200000DA013383228360817181860F971F8217E3
:10201000930769F4EC0128813981260F371F2E5F61
:102020003F4F318320838A819B8193838283452B19
:1020300029F4F093C904E093C80442C01396FC93BA
:10204000EE931297ED01499159919E01240F351F8E
:10205000E217F30771F480819181840F951F029636
:1020600011969C938E938281938113969C938E9369
:102070001297E0E0F0E0D80112968D919C911397B1
:10208000009719F0F8018C01F6CF8D919C91980181
:102090002E5F3F4F820F931F2091C6043091C704DB
:1020A0002817390769F4309729F41092C90410925F
:1020B000C80402C0138212821093C7040093C6049E
:1020C000DF91CF911F910F9108956F927F928F9220
:1020D0009F92AF92BF92CF92DF92EF92FF920F93B7
:1020E0001F93CF93DF93EC01009789F4CB01DF912D
:1020F000CF911F910F91FF90EF90DF90CF90BF9005
:10210000AF909F908F907F906F900C94380FFC0150
:10211000E60FF71F9C0122503109E217F30708F47C
:10212000ACC0D9010D911C91119706171707B0F09B
:102130000530110508F49FC0C8010497861797075A
:1021400008F499C002501109061B170B0193119353
:102150006D937C93CF010E94CD0F8DC05B01A01ABF
:10216000B10A4C01800E911EA091C804B091C9041F
:1021700040E050E0E12CF12C109709F44AC0A8157A
:10218000B905D1F56D907C901197630182E0C80E7E
:10219000D11CCA14DB0480F1A3014A195B096A014E
:1021A00082E0C80ED11C1296BC9012971396AC9187
:1021B000B5E0CB16D10440F0B282A38351834083B3
:1021C000D9016D937C930AC00E5F1F4FC301800F2E
:1021D000911FF90191838083EB2DFA2FE114F10413
:1021E00031F0D7011396FC93EE93129744C0F0930D
:1021F000C904E093C8043FC08D919C911197481782
:10220000590708F4AC017D0112960D90BC91A02DE8
:10221000B3CF8091C6049091C70488159905E1F465
:1022200046175707C8F48091000290910102009769
:1022300041F48DB79EB74091040250910502841B72
:10224000950BE817F907C8F4F093C704E093C604A8
:10225000F901718360830FC0CB010E94380F7C01AC
:10226000009759F0A801BE010E945311CE010E94AF
:10227000CD0FC70104C0CE0102C080E090E0DF9125
:10228000CF911F910F91FF90EF90DF90CF90BF9073
:10229000AF909F908F907F906F90089581E090E035
:1022A000F8940C946311FB01DC0102C001900D92C3
:1022B00041505040D8F70895FB01DC0101900D9288
:0A22C0000020E1F70895F894FFCF25
:1022CA000000CA048000000000000902AB02A1015C
:1022DA005002D201B001C401536572766F3A2000F0
:1022EA00202D206F70656E656400202D20636C6F51
:1022FA0073656400506C6174653A2000202D207368
:10230A0065745F73706565640048616E643A2000A5
:10231A00202D2073746F7070656400454E413A2019
:10232A0000496E313A2000496E323A2000737065D6
:10233A0065643A2000202D20646F776E00202D20DE
:10234A00757000202D20637265617465640057689A
:10235A0065656C3A2000202D207365745F75706581
:10236A0064206F6E2070696E3A20000D0A00202DDD
:10237A00207370696E6C6566742C2050574D203D31
:10238A00200020444952203D2000202D20737069EE
:10239A006E526967687400636F6E6E656374656414
:1023AA0000737461727465643A002073686F7274A2
:1023BA002000206C6F6E672000736572766F3100A3
:1023CA00736572766F3200736572766F3300506C84
:1023DA006174655F776865656C3100506C6174651E
:1023EA005F776865656C3200506C6174655F776809
:1023FA0065656C33006D656368616E696300202DE5
:10240A00207365745F75706564004F726465723A13
:10241A002000202D20666F727761726400202D20C3
:10242A006261636B00202D20636972636C654C6581
:08243A00667400202E20000052
:00000001FF
